{
  "transactions": [
    {
      "hash": "0x4ec501f6d46b6371b03e873af3ea47fa28196af91d45392e5b31d9628a255fff",
      "transactionType": "CALL",
      "contractName": null,
      "contractAddress": "0x850b8d455b5228e86f8160746aa2d904d937d941",
      "function": "ccSafeTransferFrom(address,address,uint256,uint256,bytes,uint64,uint8)",
      "arguments": [
        "0xfB59c72663b8afF74444b84A3464459514BCf72b",
        "0xfB59c72663b8afF74444b84A3464459514BCf72b",
        "0",
        "1",
        "0x97a657c900000000000000000000000000000000000000000000000000000000000493e0",
        "14767482510784806043",
        "0"
      ],
      "transaction": {
        "from": "0xfb59c72663b8aff74444b84a3464459514bcf72b",
        "to": "0x850b8d455b5228e86f8160746aa2d904d937d941",
        "gas": "0x48396",
        "value": "0x2c68af0bb140000",
        "input": "0x95556778000000000000000000000000fb59c72663b8aff74444b84a3464459514bcf72b000000000000000000000000fb59c72663b8aff74444b84a3464459514bcf72b0000000000000000000000000000000000000000000000000000000000000000000000000000000000000000000000000000000000000000000000000000000100000000000000000000000000000000000000000000000000000000000000e0000000000000000000000000000000000000000000000000ccf0a31a221f3c9b0000000000000000000000000000000000000000000000000000000000000000000000000000000000000000000000000000000000000000000000000000002497a657c900000000000000000000000000000000000000000000000000000000000493e000000000000000000000000000000000000000000000000000000000",
        "nonce": "0x6",
        "chainId": "0xaa36a7"
      },
      "additionalContracts": [],
      "isFixedGasLimit": false
    }
  ],
  "receipts": [
    {
      "status": "0x1",
      "cumulativeGasUsed": "0x19a614c",
      "logs": [
        {
          "address": "0x850b8d455b5228e86f8160746aa2d904d937d941",
          "topics": [
            "0xc3d58168c5ae7397731d063d5bbf3d657854427343f4c083240f7aacaa2d0f62",
            "0x000000000000000000000000fb59c72663b8aff74444b84a3464459514bcf72b",
            "0x000000000000000000000000fb59c72663b8aff74444b84a3464459514bcf72b",
            "0x0000000000000000000000000000000000000000000000000000000000000000"
          ],
          "data": "0x00000000000000000000000000000000000000000000000000000000000000000000000000000000000000000000000000000000000000000000000000000001",
          "blockHash": "0x4b62d0b7af0aae4164624d7791747533207c05f75c2ea7b87c429f686ea2f1cf",
          "blockNumber": "0x8387cf",
          "blockTimestamp": "0x685ad564",
          "transactionHash": "0x4ec501f6d46b6371b03e873af3ea47fa28196af91d45392e5b31d9628a255fff",
          "transactionIndex": "0x5f",
          "logIndex": "0x89",
          "removed": false
        },
        {
          "address": "0x097d90c9d3e0b50ca60e1ae45f6a81010f9fb534",
          "topics": [
            "0xe1fffcc4923d04b559f4d29a8bfc6cda04eb5b0d3c460751c2402c5c5cc9109c",
            "0x0000000000000000000000000bf3de8c5d3e8a2b34d2beeb17abfcebaf363a59"
          ],
          "data": "0x0000000000000000000000000000000000000000000000000000c4238c618c73",
          "blockHash": "0x4b62d0b7af0aae4164624d7791747533207c05f75c2ea7b87c429f686ea2f1cf",
          "blockNumber": "0x8387cf",
          "blockTimestamp": "0x685ad564",
          "transactionHash": "0x4ec501f6d46b6371b03e873af3ea47fa28196af91d45392e5b31d9628a255fff",
          "transactionIndex": "0x5f",
          "logIndex": "0x8a",
          "removed": false
        },
        {
          "address": "0x097d90c9d3e0b50ca60e1ae45f6a81010f9fb534",
          "topics": [
            "0xddf252ad1be2c89b69c2b068fc378daa952ba7f163c4a11628f55a4df523b3ef",
            "0x0000000000000000000000000bf3de8c5d3e8a2b34d2beeb17abfcebaf363a59",
            "0x00000000000000000000000012492154714fbd28f28219f6fc4315d19de1025b"
          ],
          "data": "0x0000000000000000000000000000000000000000000000000000c4238c618c73",
          "blockHash": "0x4b62d0b7af0aae4164624d7791747533207c05f75c2ea7b87c429f686ea2f1cf",
          "blockNumber": "0x8387cf",
          "blockTimestamp": "0x685ad564",
          "transactionHash": "0x4ec501f6d46b6371b03e873af3ea47fa28196af91d45392e5b31d9628a255fff",
          "transactionIndex": "0x5f",
          "logIndex": "0x8b",
          "removed": false
        },
        {
          "address": "0x12492154714fbd28f28219f6fc4315d19de1025b",
          "topics": [
            "0xd0c3c799bf9e2639de44391e7f524d229b2b55f5b1ea94b2bf7da42f7243dddd"
          ],
          "data": "0x0000000000000000000000000000000000000000000000000000000000000020000000000000000000000000000000000000000000000000de41ba4fc9d91ad9000000000000000000000000850b8d455b5228e86f8160746aa2d904d937d941000000000000000000000000b029da98c516d518ee50021e95d3683f0755d94f0000000000000000000000000000000000000000000000000000000000002fd40000000000000000000000000000000000000000000000000000000000030d4000000000000000000000000000000000000000000000000000000000000000000000000000000000000000000000000000000000000000000000000000000001000000000000000000000000097d90c9d3e0b50ca60e1ae45f6a81010f9fb5340000000000000000000000000000000000000000000000000000c4238c618c7300000000000000000000000000000000000000000000000000000000000001a0000000000000000000000000000000000000000000000000000000000000038000000000000000000000000000000000000000000000000000000000000003a001fef9a998b28b5e55360038458cd5700e79479575569ff42c234a8b95ac766500000000000000000000000000000000000000000000000000000000000001c0000000000000000000000000fb59c72663b8aff74444b84a3464459514bcf72b000000000000000000000000fb59c72663b8aff74444b84a3464459514bcf72b0000000000000000000000000000000000000000000000000000000000000000000000000000000000000000000000000000000000000000000000000000000100000000000000000000000000000000000000000000000000000000000000c00000000000000000000000000000000000000000000000000000000000000120000000000000000000000000000000000000000000000000000000000000002497a657c900000000000000000000000000000000000000000000000000000000000493e000000000000000000000000000000000000000000000000000000000000000000000000000000000000000000000000000000000000000000000007768747470733a2f2f6368726f6d69756d7075626c69632e73332e75732d656173742d312e616d617a6f6e6177732e636f6d2f6472756769702f313734393834333134303837322d434f63316363636343434e434f434e434f63326363633363634f633463636343636334636363336e3263312e6a736f6e00000000000000000000000000000000000000000000000000000000000000000000000000000000000000000000000000000000000000000000000000000000000000000000000000",
          "blockHash": "0x4b62d0b7af0aae4164624d7791747533207c05f75c2ea7b87c429f686ea2f1cf",
          "blockNumber": "0x8387cf",
          "blockTimestamp": "0x685ad564",
          "transactionHash": "0x4ec501f6d46b6371b03e873af3ea47fa28196af91d45392e5b31d9628a255fff",
          "transactionIndex": "0x5f",
          "logIndex": "0x8c",
          "removed": false
        },
        {
          "address": "0x850b8d455b5228e86f8160746aa2d904d937d941",
          "topics": [
            "0x1af2235f324b37ad72ebe81c5cd47a317af877298a0d176f9326ecb4a3cce349"
          ],
          "data": "0x000000000000000000000000fb59c72663b8aff74444b84a3464459514bcf72b000000000000000000000000fb59c72663b8aff74444b84a3464459514bcf72b00000000000000000000000000000000000000000000000000000000000000000000000000000000000000000000000000000000000000000000000000000001000000000000000000000000000000000000000000000000de41ba4fc9d91ad9000000000000000000000000000000000000000000000000ccf0a31a221f3c9b",
          "blockHash": "0x4b62d0b7af0aae4164624d7791747533207c05f75c2ea7b87c429f686ea2f1cf",
          "blockNumber": "0x8387cf",
          "blockTimestamp": "0x685ad564",
          "transactionHash": "0x4ec501f6d46b6371b03e873af3ea47fa28196af91d45392e5b31d9628a255fff",
          "transactionIndex": "0x5f",
          "logIndex": "0x8d",
          "removed": false
        }
      ],
      "logsBloom": "0x00000000000040000000000000000000000400000000000000000000000000000000000000000000000000000000000840000000000000000000000000002000000000000000000000000008000000000000000000000000000000008100200000000000020100000000000400000800000000000000000000000010000000000000000008000000000000000000000000000005000000000000800000000000000000000000080400000008008000000000000000400000000100001000000000000002000000000000000000000000000000000108000000000000000020200000000040000000000000000000000004000000000000480000080000040000",
      "type": "0x2",
      "transactionHash": "0x4ec501f6d46b6371b03e873af3ea47fa28196af91d45392e5b31d9628a255fff",
      "transactionIndex": "0x5f",
      "blockHash": "0x4b62d0b7af0aae4164624d7791747533207c05f75c2ea7b87c429f686ea2f1cf",
      "blockNumber": "0x8387cf",
      "gasUsed": "0x344a0",
      "effectiveGasPrice": "0x46526a53",
      "from": "0xfb59c72663b8aff74444b84a3464459514bcf72b",
      "to": "0x850b8d455b5228e86f8160746aa2d904d937d941",
      "contractAddress": null
    }
  ],
  "libraries": [],
  "pending": [],
  "returns": {},
  "timestamp": 1750783333,
  "chain": 11155111,
  "commit": "54b8b94"
}