{
  "transactions": [
    {
      "hash": "0x5f0659e5747bc6f0d9deac62ee4eea4d177c5f13b64e28766dc0fbf893d5dafd",
      "transactionType": "CALL",
      "contractName": null,
      "contractAddress": "0x0644e849c5cacd5c4bc90a861217e88c9449dc2c",
      "function": "enableChain(uint64,address,bytes)",
      "arguments": [
        "14767482510784806043",
        "0xbE5b5ee34f4A30A77B8383890A22c653a331c04C",
        "0x97a657c90000000000000000000000000000000000000000000000000000000000030d40"
      ],
      "transaction": {
        "from": "0xfb59c72663b8aff74444b84a3464459514bcf72b",
        "to": "0x0644e849c5cacd5c4bc90a861217e88c9449dc2c",
        "gas": "0x281a9",
        "value": "0x0",
        "input": "0x0ce639c4000000000000000000000000000000000000000000000000ccf0a31a221f3c9b000000000000000000000000be5b5ee34f4a30a77b8383890a22c653a331c04c0000000000000000000000000000000000000000000000000000000000000060000000000000000000000000000000000000000000000000000000000000002497a657c90000000000000000000000000000000000000000000000000000000000030d4000000000000000000000000000000000000000000000000000000000",
        "nonce": "0x1",
        "chainId": "0xaa36a7"
      },
      "additionalContracts": [],
      "isFixedGasLimit": false
    }
  ],
  "receipts": [
    {
      "status": "0x1",
      "cumulativeGasUsed": "0x1e36dca",
      "logs": [
        {
          "address": "0x0644e849c5cacd5c4bc90a861217e88c9449dc2c",
          "topics": [
            "0x59cc0b49d3359ac35e3872e99199469b6a1025c9a945cd9b6a411bffe337272d"
          ],
          "data": "0x000000000000000000000000000000000000000000000000ccf0a31a221f3c9b000000000000000000000000be5b5ee34f4a30a77b8383890a22c653a331c04c0000000000000000000000000000000000000000000000000000000000000060000000000000000000000000000000000000000000000000000000000000002497a657c90000000000000000000000000000000000000000000000000000000000030d4000000000000000000000000000000000000000000000000000000000",
          "blockHash": "0x9f2029732405bf4462fa68a191430592a74a2c5fed15d674e738349d35b31304",
          "blockNumber": "0x8335e2",
          "blockTimestamp": "0x6856fad0",
          "transactionHash": "0x5f0659e5747bc6f0d9deac62ee4eea4d177c5f13b64e28766dc0fbf893d5dafd",
          "transactionIndex": "0xa3",
          "logIndex": "0xb9",
          "removed": false
        }
      ],
      "logsBloom": "0x00000000000000000000000000000000000000004000000000000000000000000000000000000000000000000000000000000000000000000000000000000000000000000000000000000000000000000000000000000000000000000000000000000000000000000000000000000000000000000000000000000000000000000000000000000000000000000000000000000000000000000000000000000000000000000000000010000000000000000000000000000000000000000000000000000000000000000000000000000040000000000000000000000000000000004000000000000000000000000000800000000000000000000000004000000000",
      "type": "0x2",
      "transactionHash": "0x5f0659e5747bc6f0d9deac62ee4eea4d177c5f13b64e28766dc0fbf893d5dafd",
      "transactionIndex": "0xa3",
      "blockHash": "0x9f2029732405bf4462fa68a191430592a74a2c5fed15d674e738349d35b31304",
      "blockNumber": "0x8335e2",
      "gasUsed": "0x1d08e",
      "effectiveGasPrice": "0x10d0b0",
      "from": "0xfb59c72663b8aff74444b84a3464459514bcf72b",
      "to": "0x0644e849c5cacd5c4bc90a861217e88c9449dc2c",
      "contractAddress": null
    }
  ],
  "libraries": [],
  "pending": [],
  "returns": {},
  "timestamp": 1750530768,
  "chain": 11155111,
  "commit": "54b8b94"
}