{
  "transactions": [
    {
      "hash": "0xd02c61436dd023d823147f8ea172eaedc9b7cbd11da0d0f256b33c35e69f5f07",
      "transactionType": "CALL",
      "contractName": null,
      "contractAddress": "0xb029da98c516d518ee50021e95d3683f0755d94f",
      "function": "enableChain(uint64,address,bytes)",
      "arguments": [
        "16015286601757825753",
        "0x850B8D455b5228E86F8160746aa2d904d937d941",
        "0x97a657c90000000000000000000000000000000000000000000000000000000000030d40"
      ],
      "transaction": {
        "from": "0xfb59c72663b8aff74444b84a3464459514bcf72b",
        "to": "0xb029da98c516d518ee50021e95d3683f0755d94f",
        "gas": "0x281a9",
        "value": "0x0",
        "input": "0x0ce639c4000000000000000000000000000000000000000000000000de41ba4fc9d91ad9000000000000000000000000850b8d455b5228e86f8160746aa2d904d937d9410000000000000000000000000000000000000000000000000000000000000060000000000000000000000000000000000000000000000000000000000000002497a657c90000000000000000000000000000000000000000000000000000000000030d4000000000000000000000000000000000000000000000000000000000",
        "nonce": "0x23",
        "chainId": "0xa869"
      },
      "additionalContracts": [],
      "isFixedGasLimit": false
    }
  ],
  "receipts": [
    {
      "status": "0x1",
      "cumulativeGasUsed": "0x21f9fd",
      "logs": [
        {
          "address": "0xb029da98c516d518ee50021e95d3683f0755d94f",
          "topics": [
            "0x59cc0b49d3359ac35e3872e99199469b6a1025c9a945cd9b6a411bffe337272d"
          ],
          "data": "0x000000000000000000000000000000000000000000000000de41ba4fc9d91ad9000000000000000000000000850b8d455b5228e86f8160746aa2d904d937d9410000000000000000000000000000000000000000000000000000000000000060000000000000000000000000000000000000000000000000000000000000002497a657c90000000000000000000000000000000000000000000000000000000000030d4000000000000000000000000000000000000000000000000000000000",
          "blockHash": "0x1a6ff679bc2561086338a9e97f9db61a9acb09baf5c1c6a38adf71bbf27292c6",
          "blockNumber": "0x286a517",
          "transactionHash": "0xd02c61436dd023d823147f8ea172eaedc9b7cbd11da0d0f256b33c35e69f5f07",
          "transactionIndex": "0x5",
          "logIndex": "0x1a",
          "removed": false
        }
      ],
      "logsBloom": "0x00000000000000000000000000000000080000004000000000000000000000000000000000000000000000000000000000000000000000000000000000000000000000000000000000000000000000000000000000000000000000000001000000000000000000000000000000000000000000000000000000000000000000000000000000000000000000000000000000000000000000000000000000000000000000000000000010000000000000000000000000000000000000000000000000000000000000000000000000000000040000000000000000000000000000000000000000000000000000000000000000000000000000000000004000000000",
      "type": "0x2",
      "transactionHash": "0xd02c61436dd023d823147f8ea172eaedc9b7cbd11da0d0f256b33c35e69f5f07",
      "transactionIndex": "0x5",
      "blockHash": "0x1a6ff679bc2561086338a9e97f9db61a9acb09baf5c1c6a38adf71bbf27292c6",
      "blockNumber": "0x286a517",
      "gasUsed": "0x1d08e",
      "effectiveGasPrice": "0x1e8608f",
      "from": "0xfb59c72663b8aff74444b84a3464459514bcf72b",
      "to": "0xb029da98c516d518ee50021e95d3683f0755d94f",
      "contractAddress": null
    }
  ],
  "libraries": [],
  "pending": [],
  "returns": {},
  "timestamp": 1750774023,
  "chain": 43113,
  "commit": "54b8b94"
}