{
  "transactions": [
    {
      "hash": "0xe885f6e1beaaa7ba15de527009eaa02f832b76f8d61bd5def13cd001d43ad7f8",
      "transactionType": "CALL",
      "contractName": null,
      "contractAddress": "0x18759204f9b7198c4990e1d28bd5fbecdcf521b2",
      "function": "enableChain(uint64,address,bytes)",
      "arguments": [
        "16015286601757825753",
        "0x6fc8d8526aDF846b21DEbA79994129858B8B7EB3",
        "0x97a657c90000000000000000000000000000000000000000000000000000000000030d40"
      ],
      "transaction": {
        "from": "0xfb59c72663b8aff74444b84a3464459514bcf72b",
        "to": "0x18759204f9b7198c4990e1d28bd5fbecdcf521b2",
        "gas": "0x281a9",
        "value": "0x0",
        "input": "0x0ce639c4000000000000000000000000000000000000000000000000de41ba4fc9d91ad90000000000000000000000006fc8d8526adf846b21deba79994129858b8b7eb30000000000000000000000000000000000000000000000000000000000000060000000000000000000000000000000000000000000000000000000000000002497a657c90000000000000000000000000000000000000000000000000000000000030d4000000000000000000000000000000000000000000000000000000000",
        "nonce": "0x4c",
        "chainId": "0xa869"
      },
      "additionalContracts": [],
      "isFixedGasLimit": false
    }
  ],
  "receipts": [
    {
      "status": "0x1",
      "cumulativeGasUsed": "0x16d01d",
      "logs": [
        {
          "address": "0x18759204f9b7198c4990e1d28bd5fbecdcf521b2",
          "topics": [
            "0x59cc0b49d3359ac35e3872e99199469b6a1025c9a945cd9b6a411bffe337272d"
          ],
          "data": "0x000000000000000000000000000000000000000000000000de41ba4fc9d91ad90000000000000000000000006fc8d8526adf846b21deba79994129858b8b7eb30000000000000000000000000000000000000000000000000000000000000060000000000000000000000000000000000000000000000000000000000000002497a657c90000000000000000000000000000000000000000000000000000000000030d4000000000000000000000000000000000000000000000000000000000",
          "blockHash": "0xeaabd37222c70c7a6b181f8d582046a424f66357b3080a5348c3c30cb759e374",
          "blockNumber": "0x288ce61",
          "transactionHash": "0xe885f6e1beaaa7ba15de527009eaa02f832b76f8d61bd5def13cd001d43ad7f8",
          "transactionIndex": "0x4",
          "logIndex": "0x2d",
          "removed": false
        }
      ],
      "logsBloom": "0x00000000000000000000000000000000000000004000000000000000000000000000000000000000000000000000000000000000000000000000000000000000000000000000000000000000000000000000000000000000000000000000000000000000000000000000000000000000000000000000000600000000000000000000000000000000000000000000000000000000000800000000000000000000000000000000000010000000000000000000000000000000000000000000000000000000000000000000000000000000000000000000000000000000000000000000000000000000000000000000000000000000000000000000004000000000",
      "type": "0x2",
      "transactionHash": "0xe885f6e1beaaa7ba15de527009eaa02f832b76f8d61bd5def13cd001d43ad7f8",
      "transactionIndex": "0x4",
      "blockHash": "0xeaabd37222c70c7a6b181f8d582046a424f66357b3080a5348c3c30cb759e374",
      "blockNumber": "0x288ce61",
      "gasUsed": "0x1d08e",
      "effectiveGasPrice": "0x32",
      "from": "0xfb59c72663b8aff74444b84a3464459514bcf72b",
      "to": "0x18759204f9b7198c4990e1d28bd5fbecdcf521b2",
      "contractAddress": null
    }
  ],
  "libraries": [],
  "pending": [],
  "returns": {},
  "timestamp": 1750957874,
  "chain": 43113,
  "commit": "a4714a9"
}