{
  "transactions": [
    {
      "hash": "0x256b19589d5bacf1fb4f0882cace8145215c3020b27fe4acb16eb341f14fce72",
      "transactionType": "CALL",
      "contractName": null,
      "contractAddress": "0xbe5b5ee34f4a30a77b8383890a22c653a331c04c",
      "function": "enableChain(uint64,address,bytes)",
      "arguments": [
        "16015286601757825753",
        "0x0644E849C5caCD5C4Bc90a861217E88C9449Dc2c",
        "0x97a657c90000000000000000000000000000000000000000000000000000000000030d40"
      ],
      "transaction": {
        "from": "0xfb59c72663b8aff74444b84a3464459514bcf72b",
        "to": "0xbe5b5ee34f4a30a77b8383890a22c653a331c04c",
        "gas": "0x281a9",
        "value": "0x0",
        "input": "0x0ce639c4000000000000000000000000000000000000000000000000de41ba4fc9d91ad90000000000000000000000000644e849c5cacd5c4bc90a861217e88c9449dc2c0000000000000000000000000000000000000000000000000000000000000060000000000000000000000000000000000000000000000000000000000000002497a657c90000000000000000000000000000000000000000000000000000000000030d4000000000000000000000000000000000000000000000000000000000",
        "nonce": "0x1c",
        "chainId": "0xa869"
      },
      "additionalContracts": [],
      "isFixedGasLimit": false
    }
  ],
  "receipts": [
    {
      "status": "0x1",
      "cumulativeGasUsed": "0x101e18",
      "logs": [
        {
          "address": "0xbe5b5ee34f4a30a77b8383890a22c653a331c04c",
          "topics": [
            "0x59cc0b49d3359ac35e3872e99199469b6a1025c9a945cd9b6a411bffe337272d"
          ],
          "data": "0x000000000000000000000000000000000000000000000000de41ba4fc9d91ad90000000000000000000000000644e849c5cacd5c4bc90a861217e88c9449dc2c0000000000000000000000000000000000000000000000000000000000000060000000000000000000000000000000000000000000000000000000000000002497a657c90000000000000000000000000000000000000000000000000000000000030d4000000000000000000000000000000000000000000000000000000000",
          "blockHash": "0xacd7dd393142313087d7524003cab765c15b71fd8f7c56bcd06ed93cf0ac23e1",
          "blockNumber": "0x2848ffa",
          "transactionHash": "0x256b19589d5bacf1fb4f0882cace8145215c3020b27fe4acb16eb341f14fce72",
          "transactionIndex": "0x2",
          "logIndex": "0xd",
          "removed": false
        }
      ],
      "logsBloom": "0x00000000000000000000000000000000000000004000000000000000000000000000000000000000000000000000000000000000020000000000000000000000000000000000000000000000000000000000000000000000000000000000000000000000000000000000000000000000000000000000000000000000000000000000000000000000000000000000000000000000000000000000000000000000000000000000000010000000000000000000000000000000000000000000000000000000000000000000000000000000000000000000000000800000000000000000000000000000000020000000000000000000000000000000004000000000",
      "type": "0x2",
      "transactionHash": "0x256b19589d5bacf1fb4f0882cace8145215c3020b27fe4acb16eb341f14fce72",
      "transactionIndex": "0x2",
      "blockHash": "0xacd7dd393142313087d7524003cab765c15b71fd8f7c56bcd06ed93cf0ac23e1",
      "blockNumber": "0x2848ffa",
      "gasUsed": "0x1d08e",
      "effectiveGasPrice": "0x2",
      "from": "0xfb59c72663b8aff74444b84a3464459514bcf72b",
      "to": "0xbe5b5ee34f4a30a77b8383890a22c653a331c04c",
      "contractAddress": null
    }
  ],
  "libraries": [],
  "pending": [],
  "returns": {},
  "timestamp": 1750530581,
  "chain": 43113,
  "commit": "54b8b94"
}