{
  "transactions": [
    {
      "hash": "0x250ea6cfbfb9a1daeb10f6e85df127dc0ebeff335ca64d19b57cb465dd67c3df",
      "transactionType": "CALL",
      "contractName": null,
      "contractAddress": "0x18759204f9b7198c4990e1d28bd5fbecdcf521b2",
      "function": "ccSafeTransferFrom(address,address,uint256,uint256,bytes,uint64,uint8)",
      "arguments": [
        "0xfB59c72663b8afF74444b84A3464459514BCf72b",
        "0xfB59c72663b8afF74444b84A3464459514BCf72b",
        "0",
        "1",
        "0x97a657c90000000000000000000000000000000000000000000000000000000000030d40",
        "16015286601757825753",
        "0"
      ],
      "transaction": {
        "from": "0xfb59c72663b8aff74444b84a3464459514bcf72b",
        "to": "0x18759204f9b7198c4990e1d28bd5fbecdcf521b2",
        "gas": "0x4e423",
        "value": "0x214e8348c4f0000",
        "input": "0x95556778000000000000000000000000fb59c72663b8aff74444b84a3464459514bcf72b000000000000000000000000fb59c72663b8aff74444b84a3464459514bcf72b0000000000000000000000000000000000000000000000000000000000000000000000000000000000000000000000000000000000000000000000000000000100000000000000000000000000000000000000000000000000000000000000e0000000000000000000000000000000000000000000000000de41ba4fc9d91ad90000000000000000000000000000000000000000000000000000000000000000000000000000000000000000000000000000000000000000000000000000002497a657c90000000000000000000000000000000000000000000000000000000000030d4000000000000000000000000000000000000000000000000000000000",
        "nonce": "0x50",
        "chainId": "0xa869"
      },
      "additionalContracts": [],
      "isFixedGasLimit": false
    }
  ],
  "receipts": [
    {
      "status": "0x1",
      "cumulativeGasUsed": "0x5a3633",
      "logs": [
        {
          "address": "0x18759204f9b7198c4990e1d28bd5fbecdcf521b2",
          "topics": [
            "0xc3d58168c5ae7397731d063d5bbf3d657854427343f4c083240f7aacaa2d0f62",
            "0x000000000000000000000000fb59c72663b8aff74444b84a3464459514bcf72b",
            "0x000000000000000000000000fb59c72663b8aff74444b84a3464459514bcf72b",
            "0x0000000000000000000000000000000000000000000000000000000000000000"
          ],
          "data": "0x00000000000000000000000000000000000000000000000000000000000000000000000000000000000000000000000000000000000000000000000000000001",
          "blockHash": "0x7488ec0f75dd396a0f72831cf1bcde0a140b0b25f1d8a6d68c5362875558a4c4",
          "blockNumber": "0x288cfa0",
          "transactionHash": "0x250ea6cfbfb9a1daeb10f6e85df127dc0ebeff335ca64d19b57cb465dd67c3df",
          "transactionIndex": "0x13",
          "logIndex": "0x4a",
          "removed": false
        },
        {
          "address": "0xd00ae08403b9bbb9124bb305c09058e32c39a48c",
          "topics": [
            "0xe1fffcc4923d04b559f4d29a8bfc6cda04eb5b0d3c460751c2402c5c5cc9109c",
            "0x000000000000000000000000f694e193200268f9a4868e4aa017a0118c9a8177"
          ],
          "data": "0x000000000000000000000000000000000000000000000000006570455dffbb05",
          "blockHash": "0x7488ec0f75dd396a0f72831cf1bcde0a140b0b25f1d8a6d68c5362875558a4c4",
          "blockNumber": "0x288cfa0",
          "transactionHash": "0x250ea6cfbfb9a1daeb10f6e85df127dc0ebeff335ca64d19b57cb465dd67c3df",
          "transactionIndex": "0x13",
          "logIndex": "0x4b",
          "removed": false
        },
        {
          "address": "0xd00ae08403b9bbb9124bb305c09058e32c39a48c",
          "topics": [
            "0xddf252ad1be2c89b69c2b068fc378daa952ba7f163c4a11628f55a4df523b3ef",
            "0x000000000000000000000000f694e193200268f9a4868e4aa017a0118c9a8177",
            "0x00000000000000000000000075b9a75ee1ffef6be7c4f842a041de7c6153cf4e"
          ],
          "data": "0x000000000000000000000000000000000000000000000000006570455dffbb05",
          "blockHash": "0x7488ec0f75dd396a0f72831cf1bcde0a140b0b25f1d8a6d68c5362875558a4c4",
          "blockNumber": "0x288cfa0",
          "transactionHash": "0x250ea6cfbfb9a1daeb10f6e85df127dc0ebeff335ca64d19b57cb465dd67c3df",
          "transactionIndex": "0x13",
          "logIndex": "0x4c",
          "removed": false
        },
        {
          "address": "0x75b9a75ee1ffef6be7c4f842a041de7c6153cf4e",
          "topics": [
            "0xd0c3c799bf9e2639de44391e7f524d229b2b55f5b1ea94b2bf7da42f7243dddd"
          ],
          "data": "0x0000000000000000000000000000000000000000000000000000000000000020000000000000000000000000000000000000000000000000ccf0a31a221f3c9b00000000000000000000000018759204f9b7198c4990e1d28bd5fbecdcf521b20000000000000000000000006fc8d8526adf846b21deba79994129858b8b7eb300000000000000000000000000000000000000000000000000000000000013d60000000000000000000000000000000000000000000000000000000000030d4000000000000000000000000000000000000000000000000000000000000000000000000000000000000000000000000000000000000000000000000000000001000000000000000000000000d00ae08403b9bbb9124bb305c09058e32c39a48c000000000000000000000000000000000000000000000000006570455dffbb0500000000000000000000000000000000000000000000000000000000000001a0000000000000000000000000000000000000000000000000000000000000038000000000000000000000000000000000000000000000000000000000000003a0b171be408331859c0a0b1230b358a46235de9857dd225d4b600a1f98a64ddc2400000000000000000000000000000000000000000000000000000000000001c0000000000000000000000000fb59c72663b8aff74444b84a3464459514bcf72b000000000000000000000000fb59c72663b8aff74444b84a3464459514bcf72b0000000000000000000000000000000000000000000000000000000000000000000000000000000000000000000000000000000000000000000000000000000100000000000000000000000000000000000000000000000000000000000000c00000000000000000000000000000000000000000000000000000000000000120000000000000000000000000000000000000000000000000000000000000002497a657c90000000000000000000000000000000000000000000000000000000000030d4000000000000000000000000000000000000000000000000000000000000000000000000000000000000000000000000000000000000000000000007768747470733a2f2f6368726f6d69756d7075626c69632e73332e75732d656173742d312e616d617a6f6e6177732e636f6d2f6472756769702f313734393834333134303837322d434f63316363636343434e434f434e434f63326363633363634f633463636343636334636363336e3263312e6a736f6e00000000000000000000000000000000000000000000000000000000000000000000000000000000000000000000000000000000000000000000000000000000000000000000000000",
          "blockHash": "0x7488ec0f75dd396a0f72831cf1bcde0a140b0b25f1d8a6d68c5362875558a4c4",
          "blockNumber": "0x288cfa0",
          "transactionHash": "0x250ea6cfbfb9a1daeb10f6e85df127dc0ebeff335ca64d19b57cb465dd67c3df",
          "transactionIndex": "0x13",
          "logIndex": "0x4d",
          "removed": false
        },
        {
          "address": "0x18759204f9b7198c4990e1d28bd5fbecdcf521b2",
          "topics": [
            "0x1af2235f324b37ad72ebe81c5cd47a317af877298a0d176f9326ecb4a3cce349"
          ],
          "data": "0x000000000000000000000000fb59c72663b8aff74444b84a3464459514bcf72b000000000000000000000000fb59c72663b8aff74444b84a3464459514bcf72b00000000000000000000000000000000000000000000000000000000000000000000000000000000000000000000000000000000000000000000000000000001000000000000000000000000000000000000000000000000ccf0a31a221f3c9b000000000000000000000000000000000000000000000000de41ba4fc9d91ad9",
          "blockHash": "0x7488ec0f75dd396a0f72831cf1bcde0a140b0b25f1d8a6d68c5362875558a4c4",
          "blockNumber": "0x288cfa0",
          "transactionHash": "0x250ea6cfbfb9a1daeb10f6e85df127dc0ebeff335ca64d19b57cb465dd67c3df",
          "transactionIndex": "0x13",
          "logIndex": "0x4e",
          "removed": false
        }
      ],
      "logsBloom": "0x00000000000000000001000000000000000000000000000000000000000000000000000000000000000000000000000000000000000000000000000000002000000000000000000000000008000000000000000000000000000000008000200000000000020000000000000000000800000000000028000600000010000000000008000000000000000000000020000000000005000800000000000000000000000000000000000400000008008000000080000000000800000100100000000000000002000000000000000000000000000000000048000000000000000020000000000000000000080000000000000004000200000000480000080100040000",
      "type": "0x2",
      "transactionHash": "0x250ea6cfbfb9a1daeb10f6e85df127dc0ebeff335ca64d19b57cb465dd67c3df",
      "transactionIndex": "0x13",
      "blockHash": "0x7488ec0f75dd396a0f72831cf1bcde0a140b0b25f1d8a6d68c5362875558a4c4",
      "blockNumber": "0x288cfa0",
      "gasUsed": "0x3cb66",
      "effectiveGasPrice": "0x41",
      "from": "0xfb59c72663b8aff74444b84a3464459514bcf72b",
      "to": "0x18759204f9b7198c4990e1d28bd5fbecdcf521b2",
      "contractAddress": null
    }
  ],
  "libraries": [],
  "pending": [],
  "returns": {},
  "timestamp": 1750958301,
  "chain": 43113,
  "commit": "a4714a9"
}