{
  "transactions": [
    {
      "hash": "0xbaf653a541a6a841693606b88361f556329462abfac50065e2182f49e9f299b6",
      "transactionType": "CALL",
      "contractName": null,
      "contractAddress": "0xbe5b5ee34f4a30a77b8383890a22c653a331c04c",
      "function": "ccSafeTransferFrom(address,address,uint256,uint256,bytes,uint64,uint8)",
      "arguments": [
        "0xfB59c72663b8afF74444b84A3464459514BCf72b",
        "0xfB59c72663b8afF74444b84A3464459514BCf72b",
        "0",
        "1",
        "0x97a657c90000000000000000000000000000000000000000000000000000000000030d40",
        "16015286601757825753",
        "0"
      ],
      "transaction": {
        "from": "0xfb59c72663b8aff74444b84a3464459514bcf72b",
        "to": "0xbe5b5ee34f4a30a77b8383890a22c653a331c04c",
        "gas": "0x4c347",
        "value": "0x6a94d74f430000",
        "input": "0x95556778000000000000000000000000fb59c72663b8aff74444b84a3464459514bcf72b000000000000000000000000fb59c72663b8aff74444b84a3464459514bcf72b0000000000000000000000000000000000000000000000000000000000000000000000000000000000000000000000000000000000000000000000000000000100000000000000000000000000000000000000000000000000000000000000e0000000000000000000000000000000000000000000000000de41ba4fc9d91ad90000000000000000000000000000000000000000000000000000000000000000000000000000000000000000000000000000000000000000000000000000002497a657c90000000000000000000000000000000000000000000000000000000000030d4000000000000000000000000000000000000000000000000000000000",
        "nonce": "0x1f",
        "chainId": "0xa869"
      },
      "additionalContracts": [],
      "isFixedGasLimit": false
    }
  ],
  "receipts": [
    {
      "status": "0x1",
      "cumulativeGasUsed": "0x3c7ae",
      "logs": [
        {
          "address": "0xbe5b5ee34f4a30a77b8383890a22c653a331c04c",
          "topics": [
            "0xc3d58168c5ae7397731d063d5bbf3d657854427343f4c083240f7aacaa2d0f62",
            "0x000000000000000000000000fb59c72663b8aff74444b84a3464459514bcf72b",
            "0x000000000000000000000000fb59c72663b8aff74444b84a3464459514bcf72b",
            "0x0000000000000000000000000000000000000000000000000000000000000000"
          ],
          "data": "0x00000000000000000000000000000000000000000000000000000000000000000000000000000000000000000000000000000000000000000000000000000001",
          "blockHash": "0x827913a238730389ed55ed29f4d04f507c91e2f09e60d62b9998b27eda2cdd1c",
          "blockNumber": "0x2849564",
          "transactionHash": "0xbaf653a541a6a841693606b88361f556329462abfac50065e2182f49e9f299b6",
          "transactionIndex": "0x0",
          "logIndex": "0x0",
          "removed": false
        },
        {
          "address": "0xd00ae08403b9bbb9124bb305c09058e32c39a48c",
          "topics": [
            "0xe1fffcc4923d04b559f4d29a8bfc6cda04eb5b0d3c460751c2402c5c5cc9109c",
            "0x000000000000000000000000f694e193200268f9a4868e4aa017a0118c9a8177"
          ],
          "data": "0x0000000000000000000000000000000000000000000000000066a9285e38fd78",
          "blockHash": "0x827913a238730389ed55ed29f4d04f507c91e2f09e60d62b9998b27eda2cdd1c",
          "blockNumber": "0x2849564",
          "transactionHash": "0xbaf653a541a6a841693606b88361f556329462abfac50065e2182f49e9f299b6",
          "transactionIndex": "0x0",
          "logIndex": "0x1",
          "removed": false
        },
        {
          "address": "0xd00ae08403b9bbb9124bb305c09058e32c39a48c",
          "topics": [
            "0xddf252ad1be2c89b69c2b068fc378daa952ba7f163c4a11628f55a4df523b3ef",
            "0x000000000000000000000000f694e193200268f9a4868e4aa017a0118c9a8177",
            "0x00000000000000000000000075b9a75ee1ffef6be7c4f842a041de7c6153cf4e"
          ],
          "data": "0x0000000000000000000000000000000000000000000000000066a9285e38fd78",
          "blockHash": "0x827913a238730389ed55ed29f4d04f507c91e2f09e60d62b9998b27eda2cdd1c",
          "blockNumber": "0x2849564",
          "transactionHash": "0xbaf653a541a6a841693606b88361f556329462abfac50065e2182f49e9f299b6",
          "transactionIndex": "0x0",
          "logIndex": "0x2",
          "removed": false
        },
        {
          "address": "0x75b9a75ee1ffef6be7c4f842a041de7c6153cf4e",
          "topics": [
            "0xd0c3c799bf9e2639de44391e7f524d229b2b55f5b1ea94b2bf7da42f7243dddd"
          ],
          "data": "0x0000000000000000000000000000000000000000000000000000000000000020000000000000000000000000000000000000000000000000ccf0a31a221f3c9b000000000000000000000000be5b5ee34f4a30a77b8383890a22c653a331c04c0000000000000000000000000644e849c5cacd5c4bc90a861217e88c9449dc2c000000000000000000000000000000000000000000000000000000000000120c0000000000000000000000000000000000000000000000000000000000030d4000000000000000000000000000000000000000000000000000000000000000000000000000000000000000000000000000000000000000000000000000000001000000000000000000000000d00ae08403b9bbb9124bb305c09058e32c39a48c0000000000000000000000000000000000000000000000000066a9285e38fd7800000000000000000000000000000000000000000000000000000000000001a0000000000000000000000000000000000000000000000000000000000000038000000000000000000000000000000000000000000000000000000000000003a02711b0b079d5ef3d5e12f704e5772b09692e8ab86d181cf88e756f354fb2c83500000000000000000000000000000000000000000000000000000000000001c0000000000000000000000000fb59c72663b8aff74444b84a3464459514bcf72b000000000000000000000000fb59c72663b8aff74444b84a3464459514bcf72b0000000000000000000000000000000000000000000000000000000000000000000000000000000000000000000000000000000000000000000000000000000100000000000000000000000000000000000000000000000000000000000000c00000000000000000000000000000000000000000000000000000000000000120000000000000000000000000000000000000000000000000000000000000002497a657c90000000000000000000000000000000000000000000000000000000000030d4000000000000000000000000000000000000000000000000000000000000000000000000000000000000000000000000000000000000000000000007768747470733a2f2f6368726f6d69756d7075626c69632e73332e75732d656173742d312e616d617a6f6e6177732e636f6d2f6472756769702f313734393834333134303837322d434f63316363636343434e434f434e434f63326363633363634f633463636343636334636363336e3263312e6a736f6e00000000000000000000000000000000000000000000000000000000000000000000000000000000000000000000000000000000000000000000000000000000000000000000000000",
          "blockHash": "0x827913a238730389ed55ed29f4d04f507c91e2f09e60d62b9998b27eda2cdd1c",
          "blockNumber": "0x2849564",
          "transactionHash": "0xbaf653a541a6a841693606b88361f556329462abfac50065e2182f49e9f299b6",
          "transactionIndex": "0x0",
          "logIndex": "0x3",
          "removed": false
        },
        {
          "address": "0xbe5b5ee34f4a30a77b8383890a22c653a331c04c",
          "topics": [
            "0x1af2235f324b37ad72ebe81c5cd47a317af877298a0d176f9326ecb4a3cce349"
          ],
          "data": "0x000000000000000000000000fb59c72663b8aff74444b84a3464459514bcf72b000000000000000000000000fb59c72663b8aff74444b84a3464459514bcf72b00000000000000000000000000000000000000000000000000000000000000000000000000000000000000000000000000000000000000000000000000000001000000000000000000000000000000000000000000000000ccf0a31a221f3c9b000000000000000000000000000000000000000000000000de41ba4fc9d91ad9",
          "blockHash": "0x827913a238730389ed55ed29f4d04f507c91e2f09e60d62b9998b27eda2cdd1c",
          "blockNumber": "0x2849564",
          "transactionHash": "0xbaf653a541a6a841693606b88361f556329462abfac50065e2182f49e9f299b6",
          "transactionIndex": "0x0",
          "logIndex": "0x4",
          "removed": false
        }
      ],
      "logsBloom": "0x00000000000000000001000000000000000000000000000000000000000000000000000000000000000000000000000000000000020000000000000000002000000000000000000000000008000000000000000000000000000000008000200000000000020000000000000000000800000000000028000000000010000000000008000000000000000000000020000000000005000000000000000000000000000000000000000400000008008000000080000000000800000100100000000000000002000000000000000000000000000000000048000000800000000020000000000000000000080020000000000004000200000000480000080100040000",
      "type": "0x2",
      "transactionHash": "0xbaf653a541a6a841693606b88361f556329462abfac50065e2182f49e9f299b6",
      "transactionIndex": "0x0",
      "blockHash": "0x827913a238730389ed55ed29f4d04f507c91e2f09e60d62b9998b27eda2cdd1c",
      "blockNumber": "0x2849564",
      "gasUsed": "0x3c7ae",
      "effectiveGasPrice": "0x2",
      "from": "0xfb59c72663b8aff74444b84a3464459514bcf72b",
      "to": "0xbe5b5ee34f4a30a77b8383890a22c653a331c04c",
      "contractAddress": null
    }
  ],
  "libraries": [],
  "pending": [],
  "returns": {},
  "timestamp": 1750532916,
  "chain": 43113,
  "commit": "54b8b94"
}